{
  "contractName": "Election",
  "abi": [
    {
      "inputs": [],
      "stateMutability": "nonpayable",
      "type": "constructor"
    },
    {
      "inputs": [
        {
          "internalType": "string",
          "name": "",
          "type": "string"
        }
      ],
      "name": "candidates",
      "outputs": [
        {
          "internalType": "string",
          "name": "name",
          "type": "string"
        },
        {
          "internalType": "string",
          "name": "info",
          "type": "string"
        },
        {
          "internalType": "bool",
          "name": "exists",
          "type": "bool"
        }
      ],
      "stateMutability": "view",
      "type": "function",
      "constant": true
    },
    {
      "inputs": [
        {
          "internalType": "string",
          "name": "",
          "type": "string"
        }
      ],
      "name": "voterIds",
      "outputs": [
        {
          "internalType": "bool",
          "name": "",
          "type": "bool"
        }
      ],
      "stateMutability": "view",
      "type": "function",
      "constant": true
    },
    {
      "inputs": [
        {
          "internalType": "address",
          "name": "_address",
          "type": "address"
        }
      ],
      "name": "addAdmin",
      "outputs": [],
      "stateMutability": "nonpayable",
      "type": "function"
    },
    {
      "inputs": [
        {
          "internalType": "string",
          "name": "_candidateName",
          "type": "string"
        },
        {
          "internalType": "string",
          "name": "_info",
          "type": "string"
        }
      ],
      "name": "addCandidate",
      "outputs": [],
      "stateMutability": "nonpayable",
      "type": "function"
    },
    {
      "inputs": [],
      "name": "getCandidates",
      "outputs": [
        {
          "internalType": "string[]",
          "name": "",
          "type": "string[]"
        }
      ],
      "stateMutability": "view",
      "type": "function",
      "constant": true
    },
    {
      "inputs": [
        {
          "internalType": "string",
          "name": "_name",
          "type": "string"
        },
        {
          "internalType": "string",
          "name": "_description",
          "type": "string"
        }
      ],
      "name": "setElectionDetails",
      "outputs": [],
      "stateMutability": "nonpayable",
      "type": "function"
    },
    {
      "inputs": [],
      "name": "getElectionName",
      "outputs": [
        {
          "internalType": "string",
          "name": "",
          "type": "string"
        }
      ],
      "stateMutability": "view",
      "type": "function",
      "constant": true
    },
    {
      "inputs": [],
      "name": "getElectionDescription",
      "outputs": [
        {
          "internalType": "string",
          "name": "",
          "type": "string"
        }
      ],
      "stateMutability": "view",
      "type": "function",
      "constant": true
    },
    {
      "inputs": [],
      "name": "getTotalCandidates",
      "outputs": [
        {
          "internalType": "uint256",
          "name": "",
          "type": "uint256"
        }
      ],
      "stateMutability": "view",
      "type": "function",
      "constant": true
    },
    {
      "inputs": [
        {
          "internalType": "string",
          "name": "_voterId",
          "type": "string"
        },
        {
          "internalType": "string",
          "name": "_voterName",
          "type": "string"
        },
        {
          "internalType": "string",
          "name": "_candidateName",
          "type": "string"
        }
      ],
      "name": "vote",
      "outputs": [],
      "stateMutability": "nonpayable",
      "type": "function"
    },
    {
      "inputs": [],
      "name": "getVoters",
      "outputs": [
        {
          "internalType": "string[]",
          "name": "",
          "type": "string[]"
        }
      ],
      "stateMutability": "view",
      "type": "function",
      "constant": true
    },
    {
      "inputs": [],
      "name": "getVotes",
      "outputs": [
        {
          "components": [
            {
              "internalType": "address",
              "name": "voterAddress",
              "type": "address"
            },
            {
              "internalType": "string",
              "name": "voterId",
              "type": "string"
            },
            {
              "internalType": "string",
              "name": "voterName",
              "type": "string"
            },
            {
              "internalType": "string",
              "name": "candidate",
              "type": "string"
            }
          ],
          "internalType": "struct Election.Vote[]",
          "name": "",
          "type": "tuple[]"
        }
      ],
      "stateMutability": "view",
      "type": "function",
      "constant": true
    },
    {
      "inputs": [],
      "name": "getTotalVoter",
      "outputs": [
        {
          "internalType": "uint256",
          "name": "",
          "type": "uint256"
        }
      ],
      "stateMutability": "view",
      "type": "function",
      "constant": true
    },
    {
      "inputs": [],
      "name": "endElection",
      "outputs": [],
      "stateMutability": "nonpayable",
      "type": "function"
    },
    {
      "inputs": [],
      "name": "resetElection",
      "outputs": [],
      "stateMutability": "nonpayable",
      "type": "function"
    },
    {
      "inputs": [],
      "name": "getStatus",
      "outputs": [
        {
          "internalType": "string",
          "name": "",
          "type": "string"
        }
      ],
      "stateMutability": "view",
      "type": "function",
      "constant": true
    }
  ],
  "bytecode": "0x608060405234801561001057600080fd5b5060016000803373ffffffffffffffffffffffffffffffffffffffff1673ffffffffffffffffffffffffffffffffffffffff16815260200190815260200160002060006101000a81548160ff0219169083151502179055506000600360006101000a81548160ff0219169083151502179055506000600360016101000a81548160ff021916908315150217905550611dac806100ad6000396000f3fe608060405234801561001057600080fd5b50600436106101005760003560e01c80637048027511610097578063af8c50b611610066578063af8c50b614610263578063c5539cc214610281578063cdd72253146102b3578063e8f30523146102d157610100565b806370480275146101df57806395f59fe1146101fb57806397929c63146102175780639ebed03f1461023357610100565b806326541b56116100d357806326541b561461017d57806330e7a79c146101995780634e69d560146101b757806359f78468146101d557610100565b806306a49fce146101055780630b93400e146101235780630dc96015146101415780630deb56ab1461015f575b600080fd5b61010d6102db565b60405161011a91906114c7565b60405180910390f35b61012b6103b4565b6040516101389190611502565b60405180910390f35b6101496103c1565b6040516101569190611691565b60405180910390f35b61016761062c565b6040516101749190611502565b60405180910390f35b610197600480360381019061019291906117fc565b610639565b005b6101a1610718565b6040516101ae91906118be565b60405180910390f35b6101bf6107aa565b6040516101cc91906118be565b60405180910390f35b6101dd6108d8565b005b6101f960048036038101906101f4919061190c565b61094f565b005b61021560048036038101906102109190611939565b6109a9565b005b610231600480360381019061022c91906117fc565b610c42565b005b61024d600480360381019061024891906119e0565b610caa565b60405161025a9190611a44565b60405180910390f35b61026b610ce0565b60405161027891906118be565b60405180910390f35b61029b600480360381019061029691906119e0565b610d72565b6040516102aa93929190611a5f565b60405180910390f35b6102bb610ecf565b6040516102c891906114c7565b60405180910390f35b6102d9610fa8565b005b60606005805480602002602001604051908101604052809291908181526020016000905b828210156103ab57838290600052602060002001805461031e90611ad3565b80601f016020809104026020016040519081016040528092919081815260200182805461034a90611ad3565b80156103975780601f1061036c57610100808354040283529160200191610397565b820191906000526020600020905b81548152906001019060200180831161037a57829003601f168201915b5050505050815260200190600101906102ff565b50505050905090565b6000600880549050905090565b60606006805480602002602001604051908101604052809291908181526020016000905b8282101561062357838290600052602060002090600402016040518060800160405290816000820160009054906101000a900473ffffffffffffffffffffffffffffffffffffffff1673ffffffffffffffffffffffffffffffffffffffff1673ffffffffffffffffffffffffffffffffffffffff16815260200160018201805461046e90611ad3565b80601f016020809104026020016040519081016040528092919081815260200182805461049a90611ad3565b80156104e75780601f106104bc576101008083540402835291602001916104e7565b820191906000526020600020905b8154815290600101906020018083116104ca57829003601f168201915b5050505050815260200160028201805461050090611ad3565b80601f016020809104026020016040519081016040528092919081815260200182805461052c90611ad3565b80156105795780601f1061054e57610100808354040283529160200191610579565b820191906000526020600020905b81548152906001019060200180831161055c57829003601f168201915b5050505050815260200160038201805461059290611ad3565b80601f01602080910402602001604051908101604052809291908181526020018280546105be90611ad3565b801561060b5780601f106105e05761010080835404028352916020019161060b565b820191906000526020600020905b8154815290600101906020018083116105ee57829003601f168201915b505050505081525050815260200190600101906103e5565b50505050905090565b6000600580549050905090565b600060405180606001604052808481526020018381526020016001151581525090508060048460405161066c9190611b41565b908152602001604051809103902060008201518160000190805190602001906106969291906111b2565b5060208201518160010190805190602001906106b39291906111b2565b5060408201518160020160006101000a81548160ff0219169083151502179055509050506005839080600181540180825580915050600190039060005260206000200160009091909190915090805190602001906107129291906111b2565b50505050565b60606001805461072790611ad3565b80601f016020809104026020016040519081016040528092919081815260200182805461075390611ad3565b80156107a05780601f10610775576101008083540402835291602001916107a0565b820191906000526020600020905b81548152906001019060200180831161078357829003601f168201915b5050505050905090565b606060011515600360009054906101000a900460ff1615151480156107e2575060011515600360019054906101000a900460ff161515145b15610824576040518060400160405280600881526020017f66696e697368656400000000000000000000000000000000000000000000000081525090506108d5565b60011515600360009054906101000a900460ff16151514801561085a575060001515600360019054906101000a900460ff161515145b1561089c576040518060400160405280600781526020017f72756e6e696e670000000000000000000000000000000000000000000000000081525090506108d5565b6040518060400160405280600b81526020017f6e6f742d7374617274656400000000000000000000000000000000000000000081525090505b90565b60011515600360009054906101000a900460ff16151514801561090e575060001515600360019054906101000a900460ff161515145b61091757600080fd5b6001600360006101000a81548160ff0219169083151502179055506001600360016101000a81548160ff021916908315150217905550565b60016000808373ffffffffffffffffffffffffffffffffffffffff1673ffffffffffffffffffffffffffffffffffffffff16815260200190815260200160002060006101000a81548160ff02191690831515021790555050565b60011515600360009054906101000a900460ff1615151480156109df575060001515600360019054906101000a900460ff161515145b6109e857600080fd5b6004816040516109f89190611b41565b908152602001604051809103902060020160009054906101000a900460ff16610a56576040517f08c379a0000000000000000000000000000000000000000000000000000000008152600401610a4d90611ba4565b60405180910390fd5b600783604051610a669190611b41565b908152602001604051809103902060009054906101000a900460ff1615610ac2576040517f08c379a0000000000000000000000000000000000000000000000000000000008152600401610ab990611c10565b60405180910390fd5b600060405180608001604052803373ffffffffffffffffffffffffffffffffffffffff168152602001858152602001848152602001838152509050600681908060018154018082558091505060019003906000526020600020906004020160009091909190915060008201518160000160006101000a81548173ffffffffffffffffffffffffffffffffffffffff021916908373ffffffffffffffffffffffffffffffffffffffff1602179055506020820151816001019080519060200190610b8c9291906111b2565b506040820151816002019080519060200190610ba99291906111b2565b506060820151816003019080519060200190610bc69291906111b2565b5050506001600785604051610bdb9190611b41565b908152602001604051809103902060006101000a81548160ff021916908315150217905550600884908060018154018082558091505060019003906000526020600020016000909190919091509080519060200190610c3b9291906111b2565b5050505050565b8160019080519060200190610c589291906111b2565b508060029080519060200190610c6f9291906111b2565b506001600360006101000a81548160ff0219169083151502179055506000600360016101000a81548160ff0219169083151502179055505050565b6007818051602081018201805184825260208301602085012081835280955050505050506000915054906101000a900460ff1681565b606060028054610cef90611ad3565b80601f0160208091040260200160405190810160405280929190818152602001828054610d1b90611ad3565b8015610d685780601f10610d3d57610100808354040283529160200191610d68565b820191906000526020600020905b815481529060010190602001808311610d4b57829003601f168201915b5050505050905090565b600481805160208101820180518482526020830160208501208183528095505050505050600091509050806000018054610dab90611ad3565b80601f0160208091040260200160405190810160405280929190818152602001828054610dd790611ad3565b8015610e245780601f10610df957610100808354040283529160200191610e24565b820191906000526020600020905b815481529060010190602001808311610e0757829003601f168201915b505050505090806001018054610e3990611ad3565b80601f0160208091040260200160405190810160405280929190818152602001828054610e6590611ad3565b8015610eb25780601f10610e8757610100808354040283529160200191610eb2565b820191906000526020600020905b815481529060010190602001808311610e9557829003601f168201915b5050505050908060020160009054906101000a900460ff16905083565b60606008805480602002602001604051908101604052809291908181526020016000905b82821015610f9f578382906000526020600020018054610f1290611ad3565b80601f0160208091040260200160405190810160405280929190818152602001828054610f3e90611ad3565b8015610f8b5780601f10610f6057610100808354040283529160200191610f8b565b820191906000526020600020905b815481529060010190602001808311610f6e57829003601f168201915b505050505081526020019060010190610ef3565b50505050905090565b60011515600360009054906101000a900460ff161515148015610fde575060011515600360019054906101000a900460ff161515145b610fe757600080fd5b60005b6005805490508163ffffffff16101561108857600460058263ffffffff168154811061101957611018611c30565b5b906000526020600020016040516110309190611cf3565b90815260200160405180910390206000808201600061104f9190611238565b60018201600061105f9190611238565b6002820160006101000a81549060ff02191690555050808061108090611d49565b915050610fea565b5060005b6008805490508163ffffffff16101561110357600760088263ffffffff16815481106110bb576110ba611c30565b5b906000526020600020016040516110d29190611cf3565b908152602001604051809103902060006101000a81549060ff021916905580806110fb90611d49565b91505061108c565b5060405180602001604052806000815250600190805190602001906111299291906111b2565b50604051806020016040528060008152506002908051906020019061114f9291906111b2565b506006600061115e9190611278565b6005600061116c919061129c565b6008600061117a919061129c565b6000600360006101000a81548160ff0219169083151502179055506000600360016101000a81548160ff021916908315150217905550565b8280546111be90611ad3565b90600052602060002090601f0160209004810192826111e05760008555611227565b82601f106111f957805160ff1916838001178555611227565b82800160010185558215611227579182015b8281111561122657825182559160200191906001019061120b565b5b50905061123491906112bd565b5090565b50805461124490611ad3565b6000825580601f106112565750611275565b601f01602090049060005260206000209081019061127491906112bd565b5b50565b508054600082556004029060005260206000209081019061129991906112da565b50565b50805460008255906000526020600020908101906112ba9190611348565b50565b5b808211156112d65760008160009055506001016112be565b5090565b5b8082111561134457600080820160006101000a81549073ffffffffffffffffffffffffffffffffffffffff021916905560018201600061131b9190611238565b60028201600061132b9190611238565b60038201600061133b9190611238565b506004016112db565b5090565b5b80821115611368576000818161135f9190611238565b50600101611349565b5090565b600081519050919050565b600082825260208201905092915050565b6000819050602082019050919050565b600081519050919050565b600082825260208201905092915050565b60005b838110156113d25780820151818401526020810190506113b7565b838111156113e1576000848401525b50505050565b6000601f19601f8301169050919050565b600061140382611398565b61140d81856113a3565b935061141d8185602086016113b4565b611426816113e7565b840191505092915050565b600061143d83836113f8565b905092915050565b6000602082019050919050565b600061145d8261136c565b6114678185611377565b93508360208202850161147985611388565b8060005b858110156114b557848403895281516114968582611431565b94506114a183611445565b925060208a0199505060018101905061147d565b50829750879550505050505092915050565b600060208201905081810360008301526114e18184611452565b905092915050565b6000819050919050565b6114fc816114e9565b82525050565b600060208201905061151760008301846114f3565b92915050565b600081519050919050565b600082825260208201905092915050565b6000819050602082019050919050565b600073ffffffffffffffffffffffffffffffffffffffff82169050919050565b600061157482611549565b9050919050565b61158481611569565b82525050565b60006080830160008301516115a2600086018261157b565b50602083015184820360208601526115ba82826113f8565b915050604083015184820360408601526115d482826113f8565b915050606083015184820360608601526115ee82826113f8565b9150508091505092915050565b6000611607838361158a565b905092915050565b6000602082019050919050565b60006116278261151d565b6116318185611528565b93508360208202850161164385611539565b8060005b8581101561167f578484038952815161166085826115fb565b945061166b8361160f565b925060208a01995050600181019050611647565b50829750879550505050505092915050565b600060208201905081810360008301526116ab818461161c565b905092915050565b6000604051905090565b600080fd5b600080fd5b600080fd5b600080fd5b7f4e487b7100000000000000000000000000000000000000000000000000000000600052604160045260246000fd5b611709826113e7565b810181811067ffffffffffffffff82111715611728576117276116d1565b5b80604052505050565b600061173b6116b3565b90506117478282611700565b919050565b600067ffffffffffffffff821115611767576117666116d1565b5b611770826113e7565b9050602081019050919050565b82818337600083830152505050565b600061179f61179a8461174c565b611731565b9050828152602081018484840111156117bb576117ba6116cc565b5b6117c684828561177d565b509392505050565b600082601f8301126117e3576117e26116c7565b5b81356117f384826020860161178c565b91505092915050565b60008060408385031215611813576118126116bd565b5b600083013567ffffffffffffffff811115611831576118306116c2565b5b61183d858286016117ce565b925050602083013567ffffffffffffffff81111561185e5761185d6116c2565b5b61186a858286016117ce565b9150509250929050565b600082825260208201905092915050565b600061189082611398565b61189a8185611874565b93506118aa8185602086016113b4565b6118b3816113e7565b840191505092915050565b600060208201905081810360008301526118d88184611885565b905092915050565b6118e981611569565b81146118f457600080fd5b50565b600081359050611906816118e0565b92915050565b600060208284031215611922576119216116bd565b5b6000611930848285016118f7565b91505092915050565b600080600060608486031215611952576119516116bd565b5b600084013567ffffffffffffffff8111156119705761196f6116c2565b5b61197c868287016117ce565b935050602084013567ffffffffffffffff81111561199d5761199c6116c2565b5b6119a9868287016117ce565b925050604084013567ffffffffffffffff8111156119ca576119c96116c2565b5b6119d6868287016117ce565b9150509250925092565b6000602082840312156119f6576119f56116bd565b5b600082013567ffffffffffffffff811115611a1457611a136116c2565b5b611a20848285016117ce565b91505092915050565b60008115159050919050565b611a3e81611a29565b82525050565b6000602082019050611a596000830184611a35565b92915050565b60006060820190508181036000830152611a798186611885565b90508181036020830152611a8d8185611885565b9050611a9c6040830184611a35565b949350505050565b7f4e487b7100000000000000000000000000000000000000000000000000000000600052602260045260246000fd5b60006002820490506001821680611aeb57607f821691505b60208210811415611aff57611afe611aa4565b5b50919050565b600081905092915050565b6000611b1b82611398565b611b258185611b05565b9350611b358185602086016113b4565b80840191505092915050565b6000611b4d8284611b10565b915081905092915050565b7f4e6f20737563682063616e646964617465000000000000000000000000000000600082015250565b6000611b8e601183611874565b9150611b9982611b58565b602082019050919050565b60006020820190508181036000830152611bbd81611b81565b9050919050565b7f416c726561647920566f74656400000000000000000000000000000000000000600082015250565b6000611bfa600d83611874565b9150611c0582611bc4565b602082019050919050565b60006020820190508181036000830152611c2981611bed565b9050919050565b7f4e487b7100000000000000000000000000000000000000000000000000000000600052603260045260246000fd5b60008190508160005260206000209050919050565b60008154611c8181611ad3565b611c8b8186611b05565b94506001821660008114611ca65760018114611cb757611cea565b60ff19831686528186019350611cea565b611cc085611c5f565b60005b83811015611ce257815481890152600182019150602081019050611cc3565b838801955050505b50505092915050565b6000611cff8284611c74565b915081905092915050565b7f4e487b7100000000000000000000000000000000000000000000000000000000600052601160045260246000fd5b600063ffffffff82169050919050565b6000611d5482611d39565b915063ffffffff821415611d6b57611d6a611d0a565b5b60018201905091905056fea26469706673582212202e60de02d227a94e570ac7d6aaade8d0a21756c857c92d5a837bb1054ebae28064736f6c634300080b0033",
  "immutableReferences": {},
  "source": "//SPDX-License-Identifier: UNLICENSED\npragma solidity >=0.4.22 <0.9.0;\n\ncontract Election {\n    mapping(address => bool) admins;\n    string name; // name of the election. example: for president\n    string description; // description of the election\n    bool started;\n    bool ended;\n\n    constructor() {\n        admins[msg.sender] = true;\n        started = false;\n        ended = false;\n    }\n\n    modifier onlyAdmin() {\n        //require(admins[msg.sender] == true, \"Only Admin\");\n        _;\n    }\n\n    function addAdmin(address _address) public onlyAdmin {\n        admins[_address] = true;\n    }\n\n    /*****************************CANDIDATES SECTION*****************************/\n\n    struct Candidate {\n        string name;\n        string info;\n        bool exists;\n    }\n    mapping(string => Candidate) public candidates;\n    string[] candidateNames;\n\n    function addCandidate(string memory _candidateName, string memory _info)\n        public\n        onlyAdmin\n    {\n        Candidate memory newCandidate = Candidate({\n            name: _candidateName,\n            info: _info,\n            exists: true\n        });\n\n        candidates[_candidateName] = newCandidate;\n        candidateNames.push(_candidateName);\n    }\n\n    function getCandidates() public view returns (string[] memory) {\n        return candidateNames;\n    }\n\n    /*****************************CANDIDATES SECTION*****************************/\n\n    /*****************************ELECTION SECTION*****************************/\n\n    function setElectionDetails(string memory _name, string memory _description)\n        public\n        onlyAdmin\n    {\n        name = _name;\n        description = _description;\n        started = true;\n        ended = false;\n    }\n\n    function getElectionName() public view returns (string memory) {\n        return name;\n    }\n\n    function getElectionDescription() public view returns (string memory) {\n        return description;\n    }\n\n    function getTotalCandidates() public view returns (uint256) {\n        return candidateNames.length;\n    }\n\n    /*****************************ELECTION SECTION*****************************/\n\n    /*****************************VOTER SECTION*****************************/\n\n    struct Vote {\n        address voterAddress;\n        string voterId;\n        string voterName;\n        string candidate;\n    }\n    Vote[] votes;\n    mapping(string => bool) public voterIds;\n    string[] votersArray;\n\n    function vote(\n        string memory _voterId,\n        string memory _voterName,\n        string memory _candidateName\n    ) public {\n        require(started == true && ended == false);\n        require(candidates[_candidateName].exists, \"No such candidate\");\n        require(!voterIds[_voterId], \"Already Voted\");\n\n        Vote memory newVote = Vote({\n            voterAddress: msg.sender,\n            voterId: _voterId,\n            voterName: _voterName,\n            candidate: _candidateName\n        });\n\n        votes.push(newVote);\n        voterIds[_voterId] = true;\n        votersArray.push(_voterId);\n    }\n\n    function getVoters() public view returns (string[] memory) {\n        return votersArray;\n    }\n\n    /*****************************VOTER SECTION*****************************/\n\n    function getVotes() public view onlyAdmin returns (Vote[] memory) {\n        return votes;\n    }\n\n    function getTotalVoter() public view returns (uint256) {\n        return votersArray.length;\n    }\n\n    function endElection() public onlyAdmin {\n        require(started == true && ended == false);\n\n        started = true;\n        ended = true;\n    }\n\n    function resetElection() public onlyAdmin {\n        require(started == true && ended == true);\n\n        for (uint32 i = 0; i < candidateNames.length; i++) {\n            delete candidates[candidateNames[i]];\n        }\n\n        for (uint32 i = 0; i < votersArray.length; i++) {\n            delete voterIds[votersArray[i]];\n        }\n\n        name = \"\";\n        description = \"\";\n\n        delete votes;\n        delete candidateNames;\n        delete votersArray;\n\n        started = false;\n        ended = false;\n    }\n\n    function getStatus() public view returns (string memory) {\n        if (started == true && ended == true) {\n            return \"finished\";\n        }\n\n        if (started == true && ended == false) {\n            return \"running\";\n        }\n\n        return \"not-started\";\n    }\n}\n",
  "sourcePath": "D:\\ABBVSFO\\backend\\contracts\\Election.sol",
  "compiler": {
    "name": "solc",
    "version": "0.8.11+commit.d7f03943.Emscripten.clang"
  },
  "schemaVersion": "3.4.10",
  "updatedAt": "2023-07-23T17:35:13.053Z",
  "networkType": "ethereum",
  "devdoc": {
    "kind": "dev",
    "methods": {},
    "version": 1
  },
  "userdoc": {
    "kind": "user",
    "methods": {},
    "version": 1
  }
}